:100000000C9462000C948A000C948A000C948A0070
:100010000C948A000C948A000C948A000C948A0038
:100020000C948A000C948A000C948A000C948A0028
:100030000C948A000C94ED000C948A000C948A00B5
:100040000C949A030C948A000C948C050C94DA0599
:100050000C948A000C948A000C948A000C948A00F8
:100060000C948A000C948A000000000024002700F1
:100070002A0000000000250028002B0000000000DE
:1000800023002600290004040404040404040202DA
:100090000202020203030303030301020408102007
:1000A0004080010204081020010204081020000012
:1000B0000007000201000003040600000000000029
:1000C0000000460711241FBECFEFD8E0DEBFCDBF32
:1000D00011E0A0E0B1E0E6E0FAE102C005900D9287
:1000E000AA37B107D9F712E0AAE7B1E001C01D9223
:1000F000A339B107E1F710E0C4ECD0E004C02297C7
:10010000FE010E94C60CC23CD107C9F70E948B03B6
:100110000C94010D0C940000A0E0B0E0E2E9F0E0E6
:100120000C94D20CEC01A880B980CA80DB80A114A9
:10013000B104C104D10441F484E2A82E89EDB82EA3
:100140008BE5C82E87E0D82EC601B5012DE133EF2F
:1001500041E050E00E94A90C27EA31E440E050E081
:100160000E94540C7B018C01C601B5012DE133EFD7
:1001700041E050E00E94A90CCA01B9012CEE34EF15
:100180004FEF5FEF0E94540C6E0D7F1D801F911F7B
:1001900097FF04C061507040804090486883798325
:1001A0008A839B839B01AC015F77B901CA01CDB7FC
:1001B000DEB7EAE00C94EE0C0E948C0008958DE509
:1001C00091E00E948C00089560935D0170935E0140
:1001D00080935F019093600108951F920F920FB674
:1001E0000F9211242F933F934F935F936F937F93BD
:1001F0008F939F93AF93BF93EF93FF9380E280938E
:10020000800010926F0010927A01E0917B01F091D2
:100210007C01309711F078940995FF91EF91BF918F
:10022000AF919F918F917F916F915F914F913F918E
:100230002F910F900FBE0F901F90189580917A010B
:10024000882311F081E0089580E2809380008091FE
:10025000DF01882319F01092DF0102C02D9A2D983A
:10026000EDE7F1E080818EBD0DB407FEFDCF818109
:100270008EBD0DB407FEFDCF828133968EBD0DB4C9
:1002800007FEFDCF81E0E539F80761F791E0909333
:100290007A0180EA80938000B09A90936F0080E0AA
:1002A0000895CF93DF93EC01219A229A539A2A9AC8
:1002B000239A259A229A2D9881E08DBD80E58CBDE8
:1002C000CB0124E0969587952A95E1F7262F229574
:1002D000207F272BEDE7F1E0808321836283339633
:1002E00091E0E539F907C1F7CE010E941E0180E2D5
:1002F0008093800010926F0010927A01299A2998B9
:100300008093800080E18093810081E090E0909371
:1003100089008093880082E090E090938B00809326
:100320008A0080E090E2909387008093860083E2C9
:100330008093B00088E08093B1001092B40083E015
:100340008093B3008091B10081608093B10080916F
:100350008100816080938100CE010E941E01DF91A7
:10036000CF9108950F931F93CF93DF938EE060E0BA
:100370000E94370580916101882341F081E792E076
:1003800040E855E260E070E00E94150681E792E0E7
:1003900060E071E00E94E2091092C2011092C10176
:1003A0008AE097EDA3EABCE380939A0190939B01C6
:1003B000A0939C01B0939D0184E090E09093DE01B6
:1003C0008093DD0180E090E0FC01E355FE4F118257
:1003D0001082FC01E954FE4F1182108202968A308D
:1003E000910591F780916101882331F081E792E0D6
:1003F00063E171E00E94F80803EC11E0C0E0D0E096
:1004000060916601709167016C0F7D1FF801718327
:10041000608380916101882379F081E792E04AE06E
:1004200050E00E94C608CB30D10531F081E792E060
:100430006FE171E00E94F80821960E5F1F4FCC30EB
:10044000D105F1F680916101882321F081E792E0E6
:100450000E94C60785E991E060E070E00E945101CA
:10046000DF91CF911F910F910895AF92BF92CF92DC
:10047000DF92EF92FF920F931F936091C1017091F1
:10048000C2016F5F7F4F7093C2016093C10180E032
:1004900090E00E94370B20E030E040E85FE40E94EB
:1004A000E90B882314F00E94B2018091DB01909146
:1004B000DC01892B59F56091620170916301809193
:1004C000C1019091C2010E94730C892B09F58091A2
:1004D000DD019091DE01892B91F481E08093AC01E4
:1004E00062E370E080E090E024E630E040E050E03D
:1004F0000E94170A7093AB016093AA0109C0109281
:10050000AC011092DE011092DD0102C01092AC012C
:100510008FE00E947604AA2797FDA095BA2FBC0110
:10052000CD010E94390B20E030EC4FE754E40E94EB
:100530009E0A2DEC3CEC4CE45EE30E94ED0B6093D4
:1005400096017093970180939801909399018EE0A2
:100550000E947604AA2797FDA095BA2FBC01CD0171
:100560000E94390B60939E0170939F018093A001BC
:100570009093A10120E030EC4FE754E40E949E0AE2
:100580006093A2017093A3018093A4019093A501AD
:1005900020919601309197014091980150919901D5
:1005A0000E949E0A5B016C01E0909A01F0909B0111
:1005B00000919C0110919D01A80197010E949A0A47
:1005C00087FD17C0C601B50120E030E040E85FE3D9
:1005D0000E94E90B18161CF0860175010AC00F2E47
:1005E000F0E0EF2EF0E0FF2EF0E80F2FFFE31F2FDB
:1005F000F02DE092A601F092A7010093A8011093BC
:10060000A90160E070E080E89FE3A80197010E94E3
:10061000350A20E030E04FE753E40E94ED0B0E94E2
:10062000060B9B01AC017093DC016093DB018091B0
:100630006401B9010E94980480916101882309F442
:100640005DC06091C1017091C20181E792E04AE012
:1006500050E00E94750881E792E062E271E00E943A
:10066000F8088091C1019091C20164E670E00E9497
:10067000730CBC0181E792E04AE050E00E947508EB
:1006800081E792E064E271E00E94F80840919601EF
:1006900050919701609198017091990181E792E0E2
:1006A00022E030E00E94DF0981E792E060E371E040
:1006B0000E94F8084091A2015091A3016091A40109
:1006C0007091A50181E792E022E030E00E94DF090D
:1006D00081E792E06CE371E00E94F8086091DB0131
:1006E0007091DC0181E792E04AE050E00E94D90875
:1006F0006AE070E080E090E00E94E20385E991E02A
:100700000E941E011F910F91FF90EF90DF90CF90FC
:10071000BF90AF900895CF93DF930E943B040E9457
:10072000B201C7ECD5E00E9435022097E1F30E94A8
:10073000C705F9CF1F920F920FB60F9211242F9376
:100740003F938F939F93AF93BF938091E4019091D8
:10075000E501A091E601B091E7013091E801019631
:10076000A11DB11D232F2D5F2D3720F02D57019690
:10077000A11DB11D2093E8018093E4019093E50150
:10078000A093E601B093E7018091E0019091E1012F
:10079000A091E201B091E3010196A11DB11D8093EA
:1007A000E0019093E101A093E201B093E301BF91D6
:1007B000AF919F918F913F912F910F900FBE0F900E
:1007C0001F9018959B01AC017FB7F8948091E001D0
:1007D0009091E101A091E201B091E30166B5A89B7F
:1007E00005C06F3F19F00196A11DB11D7FBFBA2F43
:1007F000A92F982F8827860F911DA11DB11D62E09A
:10080000880F991FAA1FBB1F6A95D1F7BC012DC085
:10081000FFB7F8948091E0019091E101A091E2018D
:10082000B091E301E6B5A89B05C0EF3F19F0019632
:10083000A11DB11DFFBFBA2FA92F982F88278E0F9A
:10084000911DA11DB11DE2E0880F991FAA1FBB1FBA
:10085000EA95D1F7861B970B885E9340C8F221502A
:1008600030404040504068517C4F211531054105D2
:10087000510571F60895789484B5826084BD84B57D
:10088000816084BD85B5826085BD85B5816085BD8B
:10089000EEE6F0E0808181608083E1E8F0E01082A4
:1008A000808182608083808181608083E0E8F0E0E5
:1008B000808181608083E1EBF0E0808184608083CF
:1008C000E0EBF0E0808181608083EAE7F0E0808106
:1008D0008460808380818260808380818160808366
:1008E0008081806880831092C1000895982F8E3097
:1008F00008F09E509770809168018295880F880F4C
:10090000807C892B80937C0080917A008064809326
:100910007A0080917A0086FDFCCF2091780040918A
:100920007900942F80E030E0282B392BC9010895FD
:100930001F93CF93DF93182FEB0161E00E94F8041F
:10094000209709F44AC0CF3FD10509F449C0E12FEF
:10095000F0E0E255FF4F84918330C1F0843028F4F9
:10096000813051F08230B1F50CC0863019F18730FA
:1009700049F1843079F514C084B5806884BDC7BD61
:1009800033C084B5806284BDC8BD2EC08091800014
:10099000806880938000D0938900C093880024C031
:1009A00080918000806280938000D0938B00C09300
:1009B0008A001AC08091B00080688093B000C09314
:1009C000B30012C08091B00080628093B000C093E9
:1009D000B4000AC0C038D1051CF4812F60E002C009
:1009E000812F61E00E943705DF91CF911F9108951B
:1009F000CF93DF93482F50E0CA0186569F4FFC01EA
:100A000034914A575F4FFA018491882369F190E04D
:100A1000880F991FFC01E859FF4FA591B491FC0183
:100A2000EE58FF4FC591D491662351F42FB7F89437
:100A30008C91932F909589238C93888189230BC067
:100A4000623061F42FB7F8948C91932F909589239D
:100A50008C938881832B88832FBF06C09FB7F8941F
:100A60008C91832B8C939FBFDF91CF910895482F5A
:100A700050E0CA0182559F4FFC012491CA0186565D
:100A80009F4FFC0194914A575F4FFA0134913323F1
:100A900009F440C0222351F1233071F0243028F4AE
:100AA0002130A1F0223011F514C02630B1F02730EA
:100AB000C1F02430D9F404C0809180008F7703C046
:100AC000809180008F7D8093800010C084B58F77E7
:100AD00002C084B58F7D84BD09C08091B0008F773E
:100AE00003C08091B0008F7D8093B000E32FF0E0D1
:100AF000EE0FFF1FEE58FF4FA591B4912FB7F8945A
:100B0000662321F48C919095892302C08C91892BC6
:100B10008C932FBF089508951F920F920FB60F92D6
:100B200011242F933F934F938F939F93EF93FF93B2
:100B30008091C00082FD1DC04091C6002091290215
:100B400030912A022F5F3F4F2F73307080912B021C
:100B500090912C022817390771F0E0912902F09149
:100B60002A02E751FE4F408330932A022093290244
:100B700002C08091C600FF91EF919F918F914F919C
:100B80003F912F910F900FBE0F901F901895E091FD
:100B90007D02F0917E02E05CFF4F81919191208176
:100BA0003181821B930B8F739070892B11F00E94FF
:100BB0008B0508951F920F920FB60F9211242F9359
:100BC0003F938F939F93EF93FF9320916D0230910A
:100BD0006E0280916F02909170022817390731F4EC
:100BE0008091C1008F7D8093C10014C0E0916F029D
:100BF000F0917002E35DFD4F208180916F02909132
:100C0000700201968F7390709093700280936F02C0
:100C10002093C600FF91EF919F918F913F912F916B
:100C20000F900FBE0F901F901895AF92BF92DF925A
:100C3000EF92FF920F931F93CF93DF93EC017A0112
:100C40008B01DD24403081EE580780E0680780E0AA
:100C5000780711F0DD24D39491E0A92EB12CEC8912
:100C6000FD89DD2069F0C50108A002C0880F991F29
:100C70000A94E2F7808360E079E08DE390E005C0BC
:100C8000108260E874E88EE190E0A80197010E946C
:100C9000870C21503040404050405695479537953D
:100CA000279580E12030380720F0DD2011F0DD2489
:100CB000D6CFE889F9893083EA89FB89208319A294
:100CC000EE89FF89408121E030E0C9010C8C02C02F
:100CD000880F991F0A94E2F7482B4083EE89FF8919
:100CE0004081C9010D8C02C0880F991F0A94E2F758
:100CF000482B4083EE89FF894081C9010E8C02C0D8
:100D0000880F991F0A94E2F7482B4083EE89FF89E8
:100D100080810F8C02C0220F331F0A94E2F72095C6
:100D200028232083DF91CF911F910F91FF90EF90A7
:100D3000DF90BF90AF900895DC011C96ED91FC917F
:100D40001D97E05CFF4F2191319180819181281B9B
:100D5000390B2F733070C9010895DC011C96ED9199
:100D6000FC911D97E05CFF4F20813181E054F04001
:100D7000DF01AE5BBF4F8D919C911197281739070A
:100D800019F42FEF3FEF07C08D919C91E80FF91FE9
:100D90008081282F30E0C9010895DC011C96ED9177
:100DA000FC911D97E05CFF4F20813181E054F040C1
:100DB000DF01AE5BBF4F8D919C91119728173907CA
:100DC00019F42FEF3FEF10C08D919C911197E80F10
:100DD000F91F20818D919C91119701968F739070CE
:100DE00011969C938E9330E0C9010895DC01919691
:100DF0008C919197882339F05496ED91FC915597F9
:100E0000808186FFF9CF91961C920895CF93DF934E
:100E1000EC01EE85FF85E05CFF4F20813181E054DD
:100E2000F0402F5F3F4F2F733070DF01AE5BBF4F3D
:100E30008D919C91119728173907D1F3E05CFF4FF2
:100E400080819181E054F040E80FF91F6083EE85C6
:100E5000FF85E05CFF4F31832083EE89FF8920818D
:100E600081E090E00F8C02C0880F991F0A94E2F78E
:100E7000282B208381E089A3EC89FD89808180640F
:100E8000808381E090E0DF91CF9108951092740209
:100E90001092730288EE93E0A0E0B0E080937502B8
:100EA00090937602A0937702B09378028DE691E05A
:100EB000909372028093710289EE91E090937E028A
:100EC00080937D028DE292E09093800280937F0276
:100ED00085EC90E0909382028093810284EC90E014
:100EE000909384028093830280EC90E0909386023A
:100EF0008093850281EC90E0909388028093870232
:100F000082EC90E090938A028093890286EC90E0D4
:100F100090938C0280938B0284E080938D0283E017
:100F200080938E0287E080938F0285E08093900209
:100F300081E0809391020895CF92DF92EF92FF9229
:100F40000F931F93CF93DF937C016B018A01C0E065
:100F5000D0E00FC0D6016D916D01D701ED91FC91EC
:100F60000190F081E02DC7010995C80FD91F0150EC
:100F700010400115110571F7CE01DF91CF911F913E
:100F80000F91FF90EF90DF90CF900895EF92FF9236
:100F90000F931F938C01DC01ED91FC910190F08186
:100FA000E02D6DE009957C01D801ED91FC91019057
:100FB000F081E02DC8016AE009959C012E0D3F1DCE
:100FC000C9011F910F91FF90EF900895CF93DF9388
:100FD000EC016115710519F420E030E00FC0DB0170
:100FE0000D900020E9F71197A61BB70BE881F98156
:100FF0000280F381E02DAD0109959C01C901DF91CB
:10100000CF9108954F925F927F928F929F92AF926D
:10101000BF92CF92DF92EF92FF920F931F93DF93D5
:10102000CF93CDB7DEB7A1970FB6F894DEBF0FBE52
:10103000CDBF2C01742ECB01223008F42AE019A276
:1010400031E2C32ED12CCC0EDD1E822E9924AA248F
:10105000BB24672D752FA50194010E94870C79018F
:101060008A01C801B701A50194010E94540C472DC3
:10107000461B0894C108D1084A3014F4405D01C0F1
:10108000495CF6014083E114F1040105110521F0EA
:101090007E2C5F2DC801DDCFC201B6010E94E6079C
:1010A000A1960FB6F894DEBF0FBECDBFCF91DF91F2
:1010B0001F910F91FF90EF90DF90CF90BF90AF9076
:1010C0009F908F907F905F904F900895DC01211545
:1010D000310541F4ED91FC910190F081E02D642FF8
:1010E000099508950E9402080895EF92FF920F93C8
:1010F0001F939A017B0100E010E0B801A7010E9454
:1011000066081F910F91FF90EF900895CF92DF92A4
:10111000EF92FF920F931F93CF93DF93EC016A013D
:101120007B012115310541F4E881F9810190F081BD
:10113000E02D642F09951FC02A303105D1F477FFC7
:1011400017C0E881F9810190F081E02D6DE20995E9
:101150008C0144275527BA014C195D096E097F0996
:10116000CE012AE00E9402089801280F391F04C00E
:101170002AE00E9402089C01C901DF91CF911F91D2
:101180000F91FF90EF90DF90CF900895EF92FF9234
:101190000F931F937B019A010027F7FC0095102FF6
:1011A000B801A7010E9486081F910F91FF90EF9050
:1011B0000895CF92DF92EF92FF920F931F936C01ED
:1011C0007B019A010027F7FC0095102FB801A701B9
:1011D0000E9486088C01C6010E94C607080F191FCD
:1011E000C8011F910F91FF90EF90DF90CF9008956D
:1011F0000E94E60708957F928F929F92AF92BF92CE
:10120000CF92DF92EF92FF920F931F93CF93DF93D2
:101210004C017A018B01722ECB01BA01A801970112
:101220000E94500C882321F0C4016FE471E021C0BA
:10123000C0E0D0E057016801E894D7F8C601B501D5
:101240002FEF3FEF4FE75FE70E94500C882351F4E8
:10125000C601B5012FEF3FEF4FE75FE70E949A0A03
:10126000181614F0C1E0D0E0219739F0C40163E50D
:1012700071E00E94E607EC0193C0C801B7012FEFAF
:101280003FEF4FE75FE40E94E90B181654F0C801E6
:10129000B7012FEF3FEF4FE75FEC0E949A0A8823D8
:1012A00024F4C40167E571E0E4CFC801B70120E090
:1012B00030E040E050E00E949A0A87FD03C0C0E0A1
:1012C000D0E00EC0D401ED91FC910190F081E02DB1
:1012D000C4016DE20995EC0117FB109517F9109503
:1012E00020E030E040E05FE3DD240BC0CA01B9013B
:1012F00020E030E040E251E40E949E0A9B01AC01F4
:10130000D394D71498F3C801B7010E94360A5B0141
:101310006C010E940B0B7B018C01C401B801A70179
:101320002AE030E00E946608C80FD91F772039F004
:10133000C4016BE571E00E94E607C80FD91FC80120
:10134000B7010E94370B9B01AC01C601B5010E9499
:10135000350A24C020E030E040E251E40E94ED0B69
:101360007B018C010E94060B5B016C01CC24B7FC55
:10137000C094DC2CC401B601A5012AE030E00E9433
:101380008608C80FD91FC601B5010E94390B9B0101
:10139000AC01C801B7010E94350A7A947720D1F6D2
:1013A000CE01DF91CF911F910F91FF90EF90DF90D1
:1013B000CF90BF90AF909F908F907F9008950E94A4
:1013C000FB080895EF92FF920F931F937C010E94F8
:1013D000E6078C01C7010E94C607080F191FC80144
:1013E0001F910F91FF90EF900895EF92FF920F934E
:1013F0001F937B018C01611571058105910529F40D
:1014000020E030E040E050E00BC00E94DF00A80187
:1014100097010E94A90CAC01CB01DA019C01AD013E
:10142000B901CA011F910F91FF90EF900895EF92BB
:10143000FF920F931F937B018C0162177307840740
:10144000950764F4261B370B480B590BCA01B901E9
:101450000E94F509E60EF71E081F191FB701C80103
:101460001F910F91FF90EF9008955058BB27AA2726
:101470000ED075C166D130F06BD120F031F49F3FB2
:1014800011F41EF45BC10EF4E095E7FB51C1E92FA6
:1014900077D180F3BA17620773078407950718F0AE
:1014A00071F49EF58FC10EF4E0950B2EBA2FA02D8E
:1014B0000B01B90190010C01CA01A0011124FF2701
:1014C000591B99F0593F50F4503E68F11A16F040FC
:1014D000A22F232F342F4427585FF3CF46953795FB
:1014E0002795A795F0405395C9F77EF41F16BA0BC0
:1014F000620B730B840BBAF09150A1F0FF0FBB1F6E
:10150000661F771F881FC2F70EC0BA0F621F731FB6
:10151000841F48F4879577956795B795F7959E3F13
:1015200008F0B3CF9395880F08F09927EE0F9795A1
:1015300087950895D9D008F481E008950CD00FC1A3
:1015400007D140F0FED030F021F45F3F19F0F0C039
:10155000511139C1F3C014D198F39923C9F355231C
:10156000B1F3951B550BBB27AA2762177307840796
:1015700038F09F5F5F4F220F331F441FAA1FA9F34C
:1015800033D00E2E3AF0E0E830D091505040E6953E
:10159000001CCAF729D0FE2F27D0660F771F881F9F
:1015A000BB1F261737074807AB07B0E809F0BB0B8E
:1015B000802DBF01FF2793585F4F2AF09E3F5105B2
:1015C00068F0B6C000C15F3FECF3983EDCF386954F
:1015D00077956795B795F7959F5FC9F7880F911D28
:1015E0009695879597F90895E1E0660F771F881F14
:1015F000BB1F621773078407BA0720F0621B730BC7
:10160000840BBA0BEE1F88F7E095089504D0689418
:10161000B111D9C00895BCD088F09F5790F0B92F70
:101620009927B751A0F0D1F0660F771F881F991F37
:101630001AF0BA95C9F712C0B13081F0C3D0B1E049
:101640000895C0C0672F782F8827B85F39F0B93F59
:10165000CCF3869577956795B395D9F73EF4909539
:101660008095709561957F4F8F4F9F4F0895E894B7
:1016700009C097FB3EF490958095709561957F4FDA
:101680008F4F9F4F9923A9F0F92F96E9BB27939588
:10169000F695879577956795B795F111F8CFFAF498
:1016A000BB0F11F460FF1BC06F5F7F4F8F4F9F4FC9
:1016B00016C0882311F096E911C0772321F09EE827
:1016C000872F762F05C0662371F096E8862F70E08D
:1016D00060E02AF09A95660F771F881FDAF7880F67
:1016E0009695879597F90895990F0008550FAA0BBD
:1016F000E0E8FEEF16161706E807F907C0F0121625
:101700001306E407F50798F0621B730B840B950B27
:1017100039F40A2661F0232B242B252B21F408957C
:101720000A2609F4A140A6958FEF811D811D089519
:1017300097F99F6780E870E060E008959FEF80EC84
:10174000089500240A941616170618060906089527
:1017500000240A9412161306140605060895092E8D
:101760000394000C11F4882352F0BB0F40F4BF2BFC
:1017700011F460FF04C06F5F7F4F8F4F9F4F08953C
:1017800057FD9058440F551F59F05F3F71F0479532
:10179000880F97FB991F61F09F3F79F08795089517
:1017A000121613061406551FF2CF4695F1DF08C036
:1017B000161617061806991FF1CF86957105610553
:1017C00008940895E894BB2766277727CB0197F9FB
:1017D00008958ADF08F48FEF08950BD0C0CFB1DFF2
:1017E00028F0B6DF18F0952309F0A2CFA7CF112477
:1017F000EACFC6DFA0F3959FD1F3950F50E0551FB8
:10180000629FF001729FBB27F00DB11D639FAA2755
:10181000F00DB11DAA1F649F6627B00DA11D661FA4
:10182000829F2227B00DA11D621F739FB00DA11DC5
:10183000621F839FA00D611D221F749F3327A00D7F
:10184000611D231F849F600D211D822F762F6A2F1B
:1018500011249F5750408AF0E1F088234AF0EE0FA0
:10186000FF1FBB1F661F771F881F91505040A9F7AD
:101870009E3F510570F05CCFA6CF5F3FECF3983EE2
:10188000DCF3869577956795B795F795E7959F5F14
:10189000C1F7FE2B880F911D9695879597F90895AE
:1018A00023DF880B990B0895629FD001739FF0018D
:1018B000829FE00DF11D649FE00DF11D929FF00DE0
:1018C000839FF00D749FF00D659FF00D9927729F17
:1018D000B00DE11DF91F639FB00DE11DF91FBD01A2
:1018E000CF0111240895AA1BBB1B51E107C0AA1FF9
:1018F000BB1FA617B70710F0A61BB70B881F991FB1
:101900005A95A9F780959095BC01CD010895A1E263
:101910001A2EAA1BBB1BFD010DC0AA1FBB1FEE1F69
:10192000FF1FA217B307E407F50720F0A21BB30BB4
:10193000E40BF50B661F771F881F991F1A9469F730
:1019400060957095809590959B01AC01BD01CF018C
:10195000089597FB092E05260ED057FD04D0D7DF3A
:101960000AD0001C38F450954095309521953F4F92
:101970004F4F5F4F0895F6F790958095709561955C
:101980007F4F8F4F9F4F0895EE0FFF1F0590F491EB
:10199000E02D09942F923F924F925F926F927F9227
:1019A0008F929F92AF92BF92CF92DF92EF92FF926F
:1019B0000F931F93CF93DF93CDB7DEB7CA1BDB0B1B
:1019C0000FB6F894DEBF0FBECDBF09942A883988C0
:1019D00048885F846E847D848C849B84AA84B984C7
:1019E000C884DF80EE80FD800C811B81AA81B981D3
:1019F000CE0FD11D0FB6F894DEBF0FBECDBFED01E7
:061A00000895F894FFCFE9
:101A06003D3D3D2073657474696E67207570203D99
:101A16003D3D007573696E672070696E7320002CFA
:101A260020003A00096D617820646973743A2000D9
:101A3600097265616C20646973743A000963616CAC
:101A460063756C6174656420646973743A20006E12
:101A5600616E00696E66006F7666002E00010000FA
:101A66000001E80305000100010000000006079CD4
:0A1A7600079C06CD06AD06F606003B
:00000001FF
