:100000000C9462000C948A000C948A000C948A0070
:100010000C948A000C948A000C948A000C948A0038
:100020000C948A000C948A000C948A000C948A0028
:100030000C948A000C94ED000C948A000C948A00B5
:100040000C9451040C948A000C9490050C94DE05D9
:100050000C948A000C948A000C948A000C948A00F8
:100060000C948A000C948A000000000024002700F1
:100070002A0000000000250028002B0000000000DE
:1000800023002600290004040404040404040202DA
:100090000202020203030303030301020408102007
:1000A0004080010204081020010204081020000012
:1000B0000007000201000003040600000000000029
:1000C00000004A0711241FBECFEFD8E0DEBFCDBF2E
:1000D00011E0A0E0B1E0EAEAF8E102C005900D927B
:1000E000A637B107D9F712E0A6E7B1E001C01D922B
:1000F000A939B107E1F710E0C4ECD0E004C02297C1
:10010000FE010E94180CC23CD107C9F70E944204AC
:100110000C94530C0C940000A0E0B0E0E2E9F0E095
:100120000C94240CEC01A880B980CA80DB80A11457
:10013000B104C104D10441F484E2A82E89EDB82EA3
:100140008BE5C82E87E0D82EC601B5012DE133EF2F
:1001500041E050E00E94E70B27EA31E440E050E044
:100160000E94930B7B018C01C601B5012DE133EF99
:1001700041E050E00E94E70BCA01B9012CEE34EFD8
:100180004FEF5FEF0E94930B6E0D7F1D801F911F3D
:1001900097FF04C061507040804090486883798325
:1001A0008A839B839B01AC015F77B901CA01CDB7FC
:1001B000DEB7EAE00C94400C0E948C00089584E5C0
:1001C00091E00E948C000895609354017093550152
:1001D000809356019093570108951F920F920FB686
:1001E0000F9211242F933F934F935F936F937F93BD
:1001F0008F939F93AF93BF93EF93FF9380E280938E
:10020000800010926F0010927601E0917701F091DA
:100210007801309711F078940995FF91EF91BF9193
:10022000AF919F918F917F916F915F914F913F918E
:100230002F910F900FBE0F901F901895809176010F
:10024000882311F081E0089580E2809380008091FE
:10025000E501882319F01092E50102C02D9A2D982E
:10026000E9E7F1E080818EBD0DB407FEFDCF81810D
:100270008EBD0DB407FEFDCF828133968EBD0DB4C9
:1002800007FEFDCF81E0E139F80761F791E0909337
:10029000760180EA80938000B09A90936F0080E0AE
:1002A0000895CF93DF93EC01219A229A539A2A9AC8
:1002B000239A259A229A2D9881E08DBD80E58CBDE8
:1002C000CB0124E0969587952A95E1F7262F229574
:1002D000207F272BE9E7F1E0808321836283339637
:1002E00091E0E139F907C1F7CE010E941E0180E2D9
:1002F0008093800010926F0010927601299A2998BD
:100300008093800080E18093810081E090E0909371
:1003100089008093880082E090E090938B00809326
:100320008A0080E090E2909387008093860083E2C9
:100330008093B00088E08093B1001092B40083E015
:100340008093B3008091B10081608093B10080916F
:100350008100816080938100CE010E941E01DF91A7
:10036000CF9108959FE0961B83E0989FF0011124A0
:10037000F695E795E758FE4F90FF06C08081807F95
:10038000852B808341830895CA0134E09695879533
:100390003A95E1F7808381818F70942F9295907FB9
:1003A000892B81830895AB01A3EBB1E02091640117
:1003B000309165012D933D932F5F3F4F61E0AB3C42
:1003C000B607C1F7880F991FFC01E553FE4F518313
:1003D00040835897A80FB91F81E991E06C910E9462
:1003E000B20108950F931F93CF93DF938EE060E0E7
:1003F0000E943B0580919201882341F087E792E0BB
:1004000040E855E260E070E00E94190687E792E05C
:1004100060E071E00E94D4081092AC011092AB0130
:100420008AE097EDA3EABCE3809393019093940153
:10043000A0939501B093960184E090E09093E4013D
:100440008093E30180E090E0FC01E956FE4F1182C9
:100450001082FC01EF55FE4F1182108202968A3005
:10046000910591F780919201882331F087E792E01E
:1004700063E171E00E94D10803EB11E0C0E0D0E03D
:1004800060916401709165016C0F7D1FF8017183AB
:10049000608380919201882379F087E792E04AE0B7
:1004A00050E00E94BE08CB30D10531F087E792E0E2
:1004B0006FE171E00E94D10821960E5F1F4FCC3092
:1004C000D105F1F680919201882321F087E792E02F
:1004D0000E94CA0781E991E060E070E00E9451014A
:1004E000DF91CF911F910F9108952F923F924F92DC
:1004F0005F926F927F928F929F92AF92BF92CF92B4
:10050000DF92EF92FF920F931F93DF93CF93CDB7BC
:10051000DEB72A970FB6F894DEBF0FBECDBF6C01D1
:100520005B018A017901B501882777FD8095982FB5
:100530000E94270A20E030E040EC50E40E942C0B9F
:1005400088234CF0C80162E070E00E94B20B7B018E
:10055000E6E0AE2EB12C0E9499042091AF013091BB
:10056000B0014091B1015091B201621B730B840B39
:10057000950B9601442737FD4095542F26173707D2
:100580004807590708F0B4C080916001909161015B
:100590002091AD013091AE01820F931F9093AE0177
:1005A0008093AD010C9721F41092AE011092AD0131
:1005B0008091AD019091AE018F5F9F4F31F48BE040
:1005C00090E09093AE018093AD018091AD01909148
:1005D000AE01B8010E94D30181E090E09A8789873B
:1005E0007CE0272E312C0E191F09C801AA2797FD80
:1005F000A095BA2F89839A83AB83BC83C501AA27B0
:1006000097FDA095BA2F8D839E83AF83B88737015E
:10061000882477FC8094982C5BC04090AD0150906A
:10062000AE016201A985BA85CA1ADB0AD7FE03C0EA
:100630006101CA1ADB0A69817A818B819C810E94DF
:10064000270A7B018C01B501E985FA856E1B7F0BBA
:10065000882777FD8095982F0E94270A9B01AC017F
:10066000C801B7010E94300B7B018C016D817E8136
:100670008F8198850E94270A9B01AC01C801B701B0
:100680000E948C097B018C01C401B3010E94270ADE
:100690009B01AC01C801B7010E9428090E94620AAF
:1006A0000E94F4097B018C0189859A85840D951D32
:1006B0006CE070E00E94B20BB7010E94D301C6014A
:1006C000B7010E94D30189859A8501969A87898707
:1006D000A985BA85AA16BB060CF09FCF0E94990483
:1006E0006093AF017093B0018093B1019093B20118
:1006F0002A960FB6F894DEBF0FBECDBFCF91DF9123
:100700001F910F91FF90EF90DF90CF90BF90AF902F
:100710009F908F907F906F905F904F903F902F9021
:1007200008956091AB017091AC016F5F7F4F709342
:10073000AC016093AB0180E090E0209158013091D2
:10074000590140915A0150915B010E94E70B6115DC
:1007500071058105910509F07AC060E177E280E0DA
:1007600090E020E23EE440E050E00E9409096093FE
:1007700058017093590180935A0190935B016AE08C
:1007800070E080E090E024E630E040E050E00E943D
:10079000090960935C0170935D0180935E01909301
:1007A0005F0162E070E080E090E00E94E708660F81
:1007B000771F881F991F6150704080409040609360
:1007C0006001709361018093620190936301809155
:1007D00092018823E1F187E792E062E271E00E94F2
:1007E000D108409158015091590160915A0170917E
:1007F0005B0187E792E02AE030E00E946A0887E721
:1008000092E06AE371E00E94D10840915C0150914E
:100810005D0160915E0170915F0187E792E02AE0DF
:1008200030E00E946A0887E792E067E471E00E9486
:10083000D108409160015091610160916201709115
:10084000630187E792E02AE030E00E94AA088091E5
:100850005C0190915D0163E070E04FEF5FE024EF99
:1008600031E00E94750281E991E00E941E018091B1
:100870009201882331F06AE070E080E090E00E940D
:10088000A7040895CF93DF930E9400050E94F20110
:10089000CBECD5E00E9491032097E1F30E94CB05B9
:1008A000F9CF1F920F920FB60F9211242F933F93FF
:1008B0008F939F93AF93BF938091EA019091EB0147
:1008C000A091EC01B091ED013091EE010196A11DD6
:1008D000B11D232F2D5F2D3720F02D570196A11D1F
:1008E000B11D2093EE018093EA019093EB01A09358
:1008F000EC01B093ED018091E6019091E701A091A8
:10090000E801B091E9010196A11DB11D8093E601B6
:100910009093E701A093E801B093E901BF91AF91F3
:100920009F918F913F912F910F900FBE0F901F902D
:1009300018958FB7F8942091EA013091EB0140911E
:10094000EC015091ED018FBFB901CA0108959B01DF
:10095000AC017FB7F8948091E6019091E701A091F6
:10096000E801B091E90166B5A89B05C06F3F19F099
:100970000196A11DB11D7FBFBA2FA92F982F8827DF
:10098000860F911DA11DB11D62E0880F991FAA1F3E
:10099000BB1F6A95D1F7BC012DC0FFB7F8948091B9
:1009A000E6019091E701A091E801B091E901E6B577
:1009B000A89B05C0EF3F19F00196A11DB11DFFBF17
:1009C000BA2FA92F982F88278E0F911DA11DB11D19
:1009D000E2E0880F991FAA1FBB1FEA95D1F7861B7B
:1009E000970B885E9340C8F2215030404040504001
:1009F00068517C4F211531054105510571F6089567
:100A0000789484B5826084BD84B5816084BD85B5E9
:100A1000826085BD85B5816085BDEEE6F0E08081B0
:100A200081608083E1E8F0E01082808182608083D1
:100A3000808181608083E0E8F0E080818160808354
:100A4000E1EBF0E0808184608083E0EBF0E0808186
:100A500081608083EAE7F0E0808184608083808128
:100A600082608083808181608083808180688083D0
:100A70001092C1000895482F50E0CA0182559F4F3F
:100A8000FC012491CA0186569F4FFC0194914A575C
:100A90005F4FFA013491332309F440C0222351F10E
:100AA000233071F0243028F42130A1F0223011F5E8
:100AB00014C02630B1F02730C1F02430D9F404C07E
:100AC000809180008F7703C0809180008F7D80931C
:100AD000800010C084B58F7702C084B58F7D84BD3F
:100AE00009C08091B0008F7703C08091B0008F7DE6
:100AF0008093B000E32FF0E0EE0FFF1FEE58FF4FA2
:100B0000A591B4912FB7F894662321F48C91909518
:100B1000892302C08C91892B8C932FBF089508954F
:100B20001F920F920FB60F9211242F933F934F9362
:100B30008F939F93EF93FF938091C00082FD1DC020
:100B40004091C60020912F02309130022F5F3F4F1D
:100B50002F7330708091310290913202281739073B
:100B600071F0E0912F02F0913002E151FE4F40838D
:100B70003093300220932F0202C08091C600FF9173
:100B8000EF919F918F914F913F912F910F900FBEB9
:100B90000F901F901895E0918302F0918402E05C21
:100BA000FF4F8191919120813181821B930B8F7333
:100BB0009070892B11F00E948F0508951F920F925B
:100BC0000FB60F9211242F933F938F939F93EF9320
:100BD000FF9320917302309174028091750290917D
:100BE00076022817390731F48091C1008F7D8093F8
:100BF000C10014C0E0917502F0917602ED5CFD4FEA
:100C00002081809175029091760201968F73907089
:100C100090937602809375022093C600FF91EF9126
:100C20009F918F913F912F910F900FBE0F901F902A
:100C30001895AF92BF92DF92EF92FF920F931F939E
:100C4000CF93DF93EC017A018B01DD24403081EEFC
:100C5000580780E0680780E0780711F0DD24D3941E
:100C600091E0A92EB12CEC89FD89DD2069F0C50148
:100C700008A002C0880F991F0A94E2F7808360E001
:100C800079E08DE390E005C0108260E874E88EE1C1
:100C900090E0A80197010E94C50B215030404040D0
:100CA0005040569547953795279580E12030380775
:100CB00020F0DD2011F0DD24D6CFE889F9893083DA
:100CC000EA89FB89208319A2EE89FF89408121E00E
:100CD00030E0C9010C8C02C0880F991F0A94E2F71A
:100CE000482B4083EE89FF894081C9010D8C02C0E9
:100CF000880F991F0A94E2F7482B4083EE89FF89F9
:100D00004081C9010E8C02C0880F991F0A94E2F736
:100D1000482B4083EE89FF8980810F8C02C0220F0F
:100D2000331F0A94E2F7209528232083DF91CF9187
:100D30001F910F91FF90EF90DF90BF90AF900895BB
:100D4000DC011C96ED91FC911D97E05CFF4F219119
:100D5000319180819181281B390B2F733070C9012B
:100D60000895DC011C96ED91FC911D97E05CFF4F0E
:100D700020813181E054F040DF01AE5BBF4F8D91A7
:100D80009C9111972817390719F42FEF3FEF07C0EF
:100D90008D919C91E80FF91F8081282F30E0C901C7
:100DA0000895DC011C96ED91FC911D97E05CFF4FCE
:100DB00020813181E054F040DF01AE5BBF4F8D9167
:100DC0009C9111972817390719F42FEF3FEF10C0A6
:100DD0008D919C911197E80FF91F20818D919C9125
:100DE000119701968F73907011969C938E9330E0BB
:100DF000C9010895DC0191968C919197882339F06F
:100E00005496ED91FC915597808186FFF9CF91968C
:100E10001C920895CF93DF93EC01EE85FF85E05C93
:100E2000FF4F20813181E054F0402F5F3F4F2F73FF
:100E30003070DF01AE5BBF4F8D919C9111972817E9
:100E40003907D1F3E05CFF4F80819181E054F0409D
:100E5000E80FF91F6083EE85FF85E05CFF4F31836B
:100E60002083EE89FF89208181E090E00F8C02C011
:100E7000880F991F0A94E2F7282B208381E089A329
:100E8000EC89FD8980818064808381E090E0DF913E
:100E9000CF91089510927A021092790288EE93E031
:100EA000A0E0B0E080937B0290937C02A0937D024F
:100EB000B0937E028AE691E0909378028093770265
:100EC0008FEE91E0909384028093830283E392E01B
:100ED000909386028093850285EC90E0909388023F
:100EE0008093870284EC90E090938A028093890239
:100EF00080EC90E090938C0280938B0281EC90E0E8
:100F000090938E0280938D0282EC90E090939002F9
:100F100080938F0286EC90E09093920280939102EE
:100F200084E08093930283E08093940287E080932F
:100F3000950285E08093960281E080939702089560
:100F4000CF92DF92EF92FF920F931F93CF93DF9395
:100F50007C016B018A01C0E0D0E00FC0D6016D9129
:100F60006D01D701ED91FC910190F081E02DC70159
:100F70000995C80FD91F015010400115110571F7CF
:100F8000CE01DF91CF911F910F91FF90EF90DF90F5
:100F9000CF900895EF92FF920F931F938C01DC0185
:100FA000ED91FC910190F081E02D6DE009957C01BF
:100FB000D801ED91FC910190F081E02DC8016AE02B
:100FC00009959C012E0D3F1DC9011F910F91FF90A6
:100FD000EF900895CF93DF93EC016115710519F43B
:100FE00020E030E00FC0DB010D900020E9F7119701
:100FF000A61BB70BE881F9810280F381E02DAD01DA
:1010000009959C01C901DF91CF9108954F925F929C
:101010007F928F929F92AF92BF92CF92DF92EF9288
:10102000FF920F931F93DF93CF93CDB7DEB7A197B6
:101030000FB6F894DEBF0FBECDBF2C01742ECB01CE
:10104000223008F42AE019A231E2C32ED12CCC0EB2
:10105000DD1E822E9924AA24BB24672D752FA5019D
:1010600094010E94C50B79018A01C801B701A5014D
:1010700094010E94930B472D461B0894C108D10888
:101080004A3014F4405D01C0495CF6014083E1142C
:10109000F1040105110521F07E2C5F2DC801DDCF83
:1010A000C201B6010E94EA07A1960FB6F894DEBF0E
:1010B0000FBECDBFCF91DF911F910F91FF90EF90A9
:1010C000DF90CF90BF90AF909F908F907F905F9078
:1010D0004F900895CF92DF92EF92FF920F931F935C
:1010E000CF93DF93EC016A017B012115310541F4B7
:1010F000E881F9810190F081E02D642F09951FC0EE
:101100002A303105D1F477FF17C0E881F9810190C9
:10111000F081E02D6DE209958C0144275527BA0135
:101120004C195D096E097F09CE012AE00E9406086C
:101130009801280F391F04C02AE00E9406089C016C
:10114000C901DF91CF911F910F91FF90EF90DF9038
:10115000CF900895EF92FF920F931F937C010E940E
:101160006A088C01C7010E94CA079C01200F311F29
:10117000C9011F910F91FF90EF900895EF92FF9298
:101180000F931F937B019A010027F7FC0095102F06
:10119000B801A7010E946A081F910F91FF90EF907C
:1011A00008950E94EA070895EF92FF920F931F930C
:1011B0007C010E94EA078C01C7010E94CA07080F40
:1011C000191FC8011F910F91FF90EF900895EF92A2
:1011D000FF920F931F937B018C01611571058105AF
:1011E000910529F420E030E040E050E00BC00E947F
:1011F000DF00A80197010E94E70BAC01CB01DA01E7
:101200009C01AD01B901CA011F910F91FF90EF90B0
:101210000895EF92FF920F931F937B018C01621749
:1012200073078407950764F4261B370B480B590B8B
:10123000CA01B9010E94E708E60EF71E081F191F30
:10124000B701C8011F910F91FF90EF90089550587A
:10125000BB27AA270ED0AFC1A0D130F0A5D120F076
:1012600031F49F3F11F41EF495C10EF4E095E7FBB5
:1012700060C1E92FB1D180F3BA1762077307840701
:10128000950718F071F49EF5E0C10EF4E0950B2E71
:10129000BA2FA02D0B01B90190010C01CA01A001C8
:1012A0001124FF27591B99F0593F50F4503E68F123
:1012B0001A16F040A22F232F342F4427585FF3CF64
:1012C000469537952795A795F0405395C9F77EF435
:1012D0001F16BA0B620B730B840BBAF09150A1F07E
:1012E000FF0FBB1F661F771F881FC2F70EC0BA0F04
:1012F000621F731F841F48F4879577956795B7958C
:10130000F7959E3F08F0B3CF9395880F08F0992783
:10131000EE0F9795879508950CD04DC145D140F0BB
:101320003CD130F021F45F3F19F003C151118EC15F
:1013300031C152D198F39923C9F35523B1F3951BC9
:10134000550BBB27AA2762177307840738F09F5FE6
:101350005F4F220F331F441FAA1FA9F333D00E2E55
:101360003AF0E0E830D091505040E695001CCAF7C2
:1013700029D0FE2F27D0660F771F881FBB1F261787
:1013800037074807AB07B0E809F0BB0B802DBF015A
:10139000FF2793585F4F2AF09E3F510568F0C9C060
:1013A00055C15F3FECF3983EDCF3869577956795E2
:1013B000B795F7959F5FC9F7880F911D969587950B
:1013C00097F90895E1E0660F771F881FBB1F62172A
:1013D00073078407BA0720F0621B730B840BBA0BE8
:1013E000EE1F88F7E095089504D06894B1112EC1DE
:1013F0000895FAD088F09F5790F0B92F9927B751E8
:10140000A0F0D1F0660F771F881F991F1AF0BA95C8
:10141000C9F712C0B13081F018D1B1E0089515C1FB
:10142000672F782F8827B85F39F0B93FCCF38695BE
:1014300077956795B395D9F73EF49095809570951B
:1014400061957F4F8F4F9F4F0895E89409C097FB98
:101450003EF490958095709561957F4F8F4F9F4F8B
:101460009923A9F0F92F96E9BB279395F6958795CF
:1014700077956795B795F111F8CFFAF4BB0F11F492
:1014800060FF1BC06F5F7F4F8F4F9F4F16C0882339
:1014900011F096E911C0772321F09EE8872F762F6F
:1014A00005C0662371F096E8862F70E060E02AF0B0
:1014B0009A95660F771F881FDAF7880F969587959C
:1014C00097F90895ABD080F09F3740F491110EF05A
:1014D000BDC060E070E080E89FEB089526F41B1625
:1014E000611D711D811D2BC045C0990F0008550F4E
:1014F000AA0BE0E8FEEF16161706E807F907C0F09A
:1015000012161306E407F50798F0621B730B840BA1
:10151000950B39F40A2661F0232B242B252B21F47B
:1015200008950A2609F4A140A6958FEF811D811D1B
:10153000089597F99F6780E870E060E00895882338
:1015400071F4772321F09850872B762F07C06623FC
:1015500011F499270DC09051862B70E060E02AF0BD
:101560009A95660F771F881FDAF7880F96958795EB
:1015700097F908959F3F49F0915028F48695779503
:101580006795B7959F5F80389F4F880F9695879591
:1015900097F908959FEF80EC089500240A94161699
:1015A000170618060906089500240A941216130651
:1015B000140605060895092E0394000C11F48823DF
:1015C00052F0BB0F40F4BF2B11F460FF04C06F5FFB
:1015D0007F4F8F4F9F4F089557FD9058440F551FD1
:1015E00059F05F3F71F04795880F97FB991F61F0A5
:1015F0009F3F79F087950895121613061406551F1C
:10160000F2CF4695F1DF08C0161617061806991F87
:10161000F1CF86957105610508940895E5DFA0F086
:10162000BEE7B91788F4BB279F3860F41616B11DC2
:10163000672F782F8827985FF7CF869577956795DE
:10164000B11D93959639C8F30895E894BB27662792
:101650007727CB0197F9089548DF08F48FEF0895B5
:101660000BD0A9CF9ADF28F09FDF18F0952309F05F
:1016700060CF90CF1124EACFAFDFA0F3959FD1F3D5
:10168000950F50E0551F629FF001729FBB27F00D30
:10169000B11D639FAA27F00DB11DAA1F649F662785
:1016A000B00DA11D661F829F2227B00DA11D621FD4
:1016B000739FB00DA11D621F839FA00D611D221F8E
:1016C000749F3327A00D611D231F849F600D211D72
:1016D000822F762F6A2F11249F5750408AF0E1F015
:1016E00088234AF0EE0FFF1FBB1F661F771F881F5E
:1016F00091505040A9F79E3F510570F01ACFA6CFE8
:101700005F3FECF3983EDCF3869577956795B79548
:10171000F795E7959F5FC1F7FE2B880F911D969572
:10172000879597F90895629FD001739FF001829F7A
:10173000E00DF11D649FE00DF11D929FF00D839F60
:10174000F00D749FF00D659FF00D9927729FB00DFD
:10175000E11DF91F639FB00DE11DF91FBD01CF0110
:101760001124089597FB092E07260AD077FD04D08F
:1017700049D006D000201AF4709561957F4F0895E6
:10178000F6F7909581959F4F0895A1E21A2EAA1B16
:10179000BB1BFD010DC0AA1FBB1FEE1FFF1FA21721
:1017A000B307E407F50720F0A21BB30BE40BF50B1E
:1017B000661F771F881F991F1A9469F760957095A7
:1017C000809590959B01AC01BD01CF01089597FBD9
:1017D000092E05260ED057FD04D0D7DF0AD0001CF5
:1017E00038F450954095309521953F4F4F4F5F4FBE
:1017F0000895F6F790958095709561957F4F8F4F7E
:101800009F4F0895AA1BBB1B51E107C0AA1FBB1F16
:10181000A617B70710F0A61BB70B881F991F5A957C
:10182000A9F780959095BC01CD010895EE0FFF1F9B
:101830000590F491E02D09942F923F924F925F9280
:101840006F927F928F929F92AF92BF92CF92DF92D0
:10185000EF92FF920F931F93CF93DF93CDB7DEB735
:10186000CA1BDB0B0FB6F894DEBF0FBECDBF0994C9
:101870002A88398848885F846E847D848C849B8420
:10188000AA84B984C884DF80EE80FD800C811B812E
:10189000AA81B981CE0FD11D0FB6F894DEBF0FBE5D
:0A18A000CDBFED010895F894FFCFCD
:1018AA003D3D3D2073657474696E67207570203DF7
:1018BA003D3D007573696E672070696E7320002C58
:1018CA0020007377617070696E672E206E65787478
:1018DA00207377617020696E2000096E6577207326
:1018EA00706565643A200009646972656374696F9A
:1018FA006E3A200001000000C8000000320000001B
:10190A00010000000100000000000A07A007A0066D
:06191A00D106B106FA0639
:00000001FF
