:100000000C9462000C948A000C948A000C948A0070
:100010000C948A000C948A000C948A000C948A0038
:100020000C948A000C948A000C948A000C948A0028
:100030000C948A000C94ED000C948A000C948A00B5
:100040000C940F050C948A000C940F070C945D0718
:100050000C948A000C948A000C948A000C948A00F8
:100060000C948A000C948A000000000024002700F1
:100070002A0000000000250028002B0000000000DE
:1000800023002600290004040404040404040202DA
:100090000202020203030303030301020408102007
:1000A0004080010204081020010204081020000012
:1000B0000007000201000003040600000000000029
:1000C0000000C90811241FBECFEFD8E0DEBFCDBFAE
:1000D00011E0A0E0B1E0E8E8FBE102C005900D927C
:1000E000AE34B107D9F713E0AEE4B1E001C01D9220
:1000F000AA3FB107E1F710E0C4ECD0E004C02297BA
:10010000FE010E94870DC23CD107C9F70E9400057D
:100110000C94C20D0C940000A0E0B0E0E2E9F0E025
:100120000C94930DEC01A880B980CA80DB80A114E7
:10013000B104C104D10441F484E2A82E89EDB82EA3
:100140008BE5C82E87E0D82EC601B5012DE133EF2F
:1001500041E050E00E946A0D27EA31E440E050E0BF
:100160000E94020D7B018C01C601B5012DE133EF28
:1001700041E050E00E946A0DCA01B9012CEE34EF53
:100180004FEF5FEF0E94020D6E0D7F1D801F911FCC
:1001900097FF04C061507040804090486883798325
:1001A0008A839B839B01AC015F77B901CA01CDB7FC
:1001B000DEB7EAE00C94AF0D0E948C00089582E354
:1001C00091E00E948C000895609332017093330196
:1001D000809334019093350108951F920F920FB6CA
:1001E0000F9211242F933F934F935F936F937F93BD
:1001F0008F939F93AF93BF93EF93FF9380E280938E
:10020000800010926F0010924E01E0914F01F0912A
:100210005001309711F078940995FF91EF91BF91BB
:10022000AF919F918F917F916F915F914F913F918E
:100230002F910F900FBE0F901F90189580914E0137
:10024000882311F081E0089580E2809380008091FE
:100250004603882319F01092460302C02D9A2D9868
:10026000E1E5F1E080818EBD0DB407FEFDCF818117
:100270008EBD0DB407FEFDCF828133968EBD0DB4C9
:1002800007FEFDCF81E0E936F80761F791E0909332
:100290004E0180EA80938000B09A90936F0080E0D6
:1002A0000895CF93DF93EC01219A229A539A2A9AC8
:1002B000239A259A229A2D9881E08DBD80E58CBDE8
:1002C000CB0124E0969587952A95E1F7262F229574
:1002D000207F272BE1E5F1E0808321836283339641
:1002E00091E0E936F907C1F7CE010E941E0180E2D4
:1002F0008093800010926F0010924E01299A2998E5
:100300008093800080E18093810081E090E0909371
:1003100089008093880082E090E090938B00809326
:100320008A0080E090E2909387008093860083E2C9
:100330008093B00088E08093B1001092B40083E015
:100340008093B3008091B10081608093B10080916F
:100350008100816080938100CE010E941E01DF91A7
:10036000CF9108959FE0961B83E0989FF0011124A0
:10037000F695E795EF5AFE4F90FF06C08081807F8B
:10038000852B808341830895CA0134E09695879533
:100390003A95E1F7808381818F70942F9295907FB9
:1003A000892B81830895AB01A6E1B3E020913A0146
:1003B00030913B012D933D932F5F3F4F63E0AC3273
:1003C000B607C1F7880F991FFC01E45DFC4F51830C
:1003D00040835697A80FB91F89E691E06C910E945F
:1003E000B20108950F931F93CF93DF9388ED93E0AD
:1003F00060E071E00E943F0A0E945705609312037B
:1004000070931303809314039093150310920F03BA
:1004100010920E038AE097EDA3EABCE380936F018C
:1004200090937001A0937101B09372018FEF90EEE1
:10043000909345038093440380E090E0FC01EA58E8
:10044000FE4F11821082FC01E25CFD4F118210828E
:100450000296883C910591F780916A01882331F0DA
:1004600088ED93E063E171E00E943C0A06E113E04D
:10047000C0E0D0E060913A0170913B016C0F7D1FAC
:10048000F8017183608380916A01882361F088EDAF
:1004900093E04AE050E00E94290A88ED93E06FE182
:1004A00071E00E943C0A21960E5F1F4FCB30D105B0
:1004B00009F780916A01882321F088ED93E00E947A
:1004C000490989E691E060E070E00E945101809165
:1004D0006A01882341F088ED93E040E855E260E04E
:1004E00070E00E949807DF91CF911F910F910895BE
:1004F0004F925F926F927F928F929F92AF92BF9234
:10050000CF92DF92EF92FF920F931F93DF93CF93DF
:10051000CDB7DEB728970FB6F894DEBF0FBECDBFBC
:100520005C014B013A018901B401882777FD809570
:10053000982F0E94960B20E030E040EA50E40E94A1
:100540009B0C88234CF0C30162E070E00E94350DE3
:100550008B01F5E08F2E912C80910E0390910F036B
:10056000B5010E94210D892B09F083C080911003F1
:1005700090911103019690931103809310036BE007
:1005800070E00E94350DB3010E94D301E1E0AE2E70
:10059000B12C601A710AC301AA2797FDA095BA2F42
:1005A00089839A83AB83BC83C401AA2797FDA09556
:1005B000BA2F8D839E83AF83B8872801662457FCAA
:1005C0006094762C52C0C0901003D09011036981C2
:1005D0007A818B819C810E94960B7B018C01B401F6
:1005E0006A197B09882777FD8095982F0E94960BC2
:1005F0009B01AC01C801B7010E949F0C7B018C01DB
:100600006D817E818F8198850E94960B9B01AC0144
:10061000C801B7010E94FB0A7B018C01C301B20132
:100620000E94960B9B01AC01C801B7010E94930A7E
:100630000E94D10B0E94630B7B018C01C5018C0DC4
:100640009D1D6BE070E00E94350DB7010E94D30143
:10065000C6018A199B096BE070E00E94350DB70155
:100660000E94D3010894A11CB11C8A149B040CF0B5
:10067000AACF28960FB6F894DEBF0FBECDBFCF919C
:10068000DF911F910F91FF90EF90DF90CF90BF907F
:10069000AF909F908F907F906F905F904F90089554
:1006A000AF92BF92CF92DF92EF92FF920F931F9380
:1006B000CF93DF9380910E0390910F030196909357
:1006C0000F0380930E0380916A01882351F080917B
:1006D0007501882331F088ED93E062E271E00E94B9
:1006E0003F0A60910E0370910F0380E090E00E943A
:1006F000940B20E030E040E85FE40E949B0C8823EC
:1007000014F00E94F2018091420390914303892BDF
:1007100059F5609138017091390180910E039091E3
:100720000F030E94210D892B09F5809144039091BC
:100730004503892B91F481E08093750162E370E0B9
:1007400080E090E024E630E040E050E00E94740A4F
:10075000709374016093730109C010927501109237
:1007600045031092440302C01092750100910803E2
:1007700010910903000F111F025C1D4F80910C03A3
:1007800090910D03F80120813181821B930B90938E
:100790000D0380930C038FE00E94F905F80191830B
:1007A00080832091080330910903F901EE0FFF1FA8
:1007B000E25CFD4F0190F081E02D80910C0390915F
:1007C0000D03E80FF91FF0930D03E0930C032F5F67
:1007D0003F4F30930903209308032436310524F05A
:1007E0001092090310920803CF0164E670E00E94A2
:1007F000350D882777FD8095982F0E94960B20E075
:1008000030EC4FE754E40E94FB0A2DEC3CEC4CE446
:100810005EE30E949F0C60936B0170936C01809368
:100820006D0190936E010091060310910703000F74
:10083000111F0A581E4F80910A0390910B03F80173
:1008400020813181821B930B90930B0380930A03C9
:100850008EE00E94F905F8019183808320910603C0
:1008600030910703F901EE0FFF1FEA58FE4F019088
:10087000F081E02D80910A0390910B03E80FF91F9E
:10088000F0930B03E0930A032F5F3F4F309307036E
:10089000209306032436310524F0109207031092AA
:1008A0000603CF0164E670E00E94350D882777FDCE
:1008B0008095982F0E94960B20E030EC4FE754E48F
:1008C0000E94FB0A20916B0130916C0140916D01F7
:1008D00050916E010E94FB0A7B018C01A0906F0178
:1008E000B0907001C0907101D0907201A601950185
:1008F0000E94F70A87FD17C0C801B70120E030E069
:1009000040E85FE30E949B0C18161CF05701680139
:100910000AC00F2EF0E0AF2EF0E0BF2EF0E8CF2E91
:10092000FFE3DF2EF02D60E070E080E89FE3A6019A
:1009300095010E94920A20E030E04FE753E40E94C4
:100940009F0C0E94630B9B01AC0170934303609367
:10095000420385E0B9010E941B0680916A01882349
:1009600031F06AE070E080E090E00E94650520913F
:10097000420330914303C0913601D09137018091F9
:100980007501882311F5AFEFEA2EF12CE21AF30A74
:10099000BE01882777FD8095982F0E94960B9B01BA
:1009A000AC01C601B5010E949F0C20E030E040E0A0
:1009B0005FE30E949F0C0E94630B8B019C01C701A7
:1009C00062E070E0AE0198010AC0809173019091DD
:1009D000740164E070E04AEF50E024E630E00E94E9
:1009E000780289E691E00E941E01DF91CF911F916C
:1009F0000F91FF90EF90DF90CF90BF90AF90089550
:100A0000CF93DF930E94BE050E94F201CAE4D7E0B3
:100A10000E9450032097E1F30E944A07F9CF1F92EA
:100A20000F920FB60F9211242F933F938F939F93A2
:100A3000AF93BF9380914B0390914C03A0914D03D2
:100A4000B0914E0330914F030196A11DB11D232F8C
:100A50002D5F2D3720F02D570196A11DB11D20933C
:100A60004F0380934B0390934C03A0934D03B0939B
:100A70004E038091470390914803A0914903B091A0
:100A80004A030196A11DB11D80934703909348032B
:100A9000A0934903B0934A03BF91AF919F918F9167
:100AA0003F912F910F900FBE0F901F9018958FB709
:100AB000F89420914B0330914C0340914D03509199
:100AC0004E038FBFB901CA0108959B01AC017FB7E6
:100AD000F8948091470390914803A0914903B09105
:100AE0004A0366B5A89B05C06F3F19F00196A11D8A
:100AF000B11D7FBFBA2FA92F982F8827860F911D70
:100B0000A11DB11D62E0880F991FAA1FBB1F6A9526
:100B1000D1F7BC012DC0FFB7F894809147039091A5
:100B20004803A0914903B0914A03E6B5A89B05C0CC
:100B3000EF3F19F00196A11DB11DFFBFBA2FA92FDC
:100B4000982F88278E0F911DA11DB11DE2E0880FFF
:100B5000991FAA1FBB1FEA95D1F7861B970B885ECA
:100B60009340C8F2215030404040504068517C4F83
:100B7000211531054105510571F60895789484B524
:100B8000826084BD84B5816084BD85B5826085BD89
:100B900085B5816085BDEEE6F0E08081816080836F
:100BA000E1E8F0E010828081826080838081816052
:100BB0008083E0E8F0E0808181608083E1EBF0E019
:100BC000808184608083E0EBF0E0808181608083BD
:100BD000EAE7F0E0808184608083808182608083A6
:100BE0008081816080838081806880831092C100D1
:100BF0000895982F8E3008F09E50977080913C0198
:100C00008295880F880F807C892B80937C0080914F
:100C10007A00806480937A0080917A0086FDFCCF10
:100C20002091780040917900942F80E030E0282BCB
:100C3000392BC90108951F93CF93DF93182FEB0130
:100C400061E00E947B06209709F44AC0CF3FD1059E
:100C500009F449C0E12FF0E0E255FF4F8491833061
:100C6000C1F0843028F4813051F08230B1F50CC0ED
:100C7000863019F1873049F1843079F514C084B594
:100C8000806884BDC7BD33C084B5806284BDC8BDE3
:100C90002EC080918000806880938000D09389006E
:100CA000C093880024C0809180008062809380007F
:100CB000D0938B00C0938A001AC08091B0008068E6
:100CC0008093B000C093B30012C08091B0008062E6
:100CD0008093B000C093B4000AC0C038D1051CF4A2
:100CE000812F60E002C0812F61E00E94BA06DF918F
:100CF000CF911F910895CF93DF93482F50E0CA0101
:100D000086569F4FFC0134914A575F4FFA018491F8
:100D1000882369F190E0880F991FFC01E859FF4F83
:100D2000A591B491FC01EE58FF4FC591D491662373
:100D300051F42FB7F8948C91932F909589238C932D
:100D4000888189230BC0623061F42FB7F8948C91AD
:100D5000932F909589238C938881832B88832FBF31
:100D600006C09FB7F8948C91832B8C939FBFDF9123
:100D7000CF910895482F50E0CA0182559F4FFC0142
:100D80002491CA0186569F4FFC0194914A575F4FA8
:100D9000FA013491332309F440C0222351F1233066
:100DA00071F0243028F42130A1F0223011F514C064
:100DB0002630B1F02730C1F02430D9F404C080913E
:100DC00080008F7703C0809180008F7D80938000AA
:100DD00010C084B58F7702C084B58F7D84BD09C0F3
:100DE0008091B0008F7703C08091B0008F7D809399
:100DF000B000E32FF0E0EE0FFF1FEE58FF4FA5917C
:100E0000B4912FB7F894662321F48C91909589239F
:100E100002C08C91892B8C932FBF089508951F9247
:100E20000F920FB60F9211242F933F934F938F93EE
:100E30009F93EF93FF938091C00082FD1DC040916E
:100E4000C60020919003309191032F5F3F4F2F7385
:100E5000307080919203909193032817390771F0B5
:100E6000E0919003F0919103E05BFC4F408330935D
:100E700091032093900302C08091C600FF91EF91EF
:100E80009F918F914F913F912F910F900FBE0F9097
:100E90001F901895E091E403F091E503E05CFF4FAB
:100EA0008191919120813181821B930B8F7390707E
:100EB000892B11F00E940E0708951F920F920FB612
:100EC0000F9211242F933F938F939F93EF93FF9350
:100ED0002091D4033091D5038091D6039091D7030C
:100EE0002817390731F48091C1008F7D8093C100AC
:100EF00014C0E091D603F091D703EC56FC4F20814B
:100F00008091D6039091D70301968F739070909340
:100F1000D7038093D6032093C600FF91EF919F9152
:100F20008F913F912F910F900FBE0F901F901895AA
:100F3000AF92BF92DF92EF92FF920F931F93CF93E6
:100F4000DF93EC017A018B01DD24403081EE5807FC
:100F500080E0680780E0780711F0DD24D39491E009
:100F6000A92EB12CEC89FD89DD2069F0C50108A00E
:100F700002C0880F991F0A94E2F7808360E079E04D
:100F80008DE390E005C0108260E874E88EE190E0A7
:100F9000A80197010E94480D215030404040504028
:100FA000569547953795279580E12030380720F0F2
:100FB000DD2011F0DD24D6CFE889F9893083EA8974
:100FC000FB89208319A2EE89FF89408121E030E06E
:100FD000C9010C8C02C0880F991F0A94E2F7482BB4
:100FE0004083EE89FF894081C9010D8C02C0880FC2
:100FF000991F0A94E2F7482B4083EE89FF894081CC
:10100000C9010E8C02C0880F991F0A94E2F7482B81
:101010004083EE89FF8980810F8C02C0220F331F2D
:101020000A94E2F7209528232083DF91CF911F9126
:101030000F91FF90EF90DF90BF90AF900895DC018B
:101040001C96ED91FC911D97E05CFF4F2191319131
:1010500080819181281B390B2F733070C90108954D
:10106000DC011C96ED91FC911D97E05CFF4F208107
:101070003181E054F040DF01AE5BBF4F8D919C9118
:1010800011972817390719F42FEF3FEF07C08D91FB
:101090009C91E80FF91F8081282F30E0C901089545
:1010A000DC011C96ED91FC911D97E05CFF4F2081C7
:1010B0003181E054F040DF01AE5BBF4F8D919C91D8
:1010C00011972817390719F42FEF3FEF10C08D91B2
:1010D0009C911197E80FF91F20818D919C91119798
:1010E00001968F73907011969C938E9330E0C90196
:1010F0000895DC0191968C919197882339F054964C
:10110000ED91FC915597808186FFF9CF91961C92C5
:101110000895CF93DF93EC01EE85FF85E05CFF4FF0
:1011200020813181E054F0402F5F3F4F2F733070AA
:10113000DF01AE5BBF4F8D919C9111972817390746
:10114000D1F3E05CFF4F80819181E054F040E80FE3
:10115000F91F6083EE85FF85E05CFF4F31832083BC
:10116000EE89FF89208181E090E00F8C02C0880F1A
:10117000991F0A94E2F7282B208381E089A3EC8948
:10118000FD8980818064808381E090E0DF91CF9150
:1011900008951092DB031092DA0388EE93E0A0E04A
:1011A000B0E08093DC039093DD03A093DE03B09363
:1011B000DF0381E491E09093D9038093D80380E525
:1011C00093E09093E5038093E40384E993E09093A4
:1011D000E7038093E60385EC90E09093E903809326
:1011E000E80384EC90E09093EB038093EA0380ECB7
:1011F00090E09093ED038093EC0381EC90E090936A
:10120000EF038093EE0382EC90E09093F1038093E0
:10121000F00386EC90E09093F3038093F20384E074
:101220008093F40383E08093F50387E08093F603D3
:1012300085E08093F70381E08093F8030895CF92CF
:10124000DF92EF92FF920F931F93CF93DF937C0176
:101250006B018A01C0E0D0E00FC0D6016D916D0135
:10126000D701ED91FC910190F081E02DC701099526
:10127000C80FD91F015010400115110571F7CE019B
:10128000DF91CF911F910F91FF90EF90DF90CF9062
:101290000895EF92FF920F931F938C01DC01ED9163
:1012A000FC910190F081E02D6DE009957C01D80161
:1012B000ED91FC910190F081E02DC8016AE0099563
:1012C0009C012E0D3F1DC9011F910F91FF90EF90C2
:1012D0000895CF93DF93EC016115710519F420E0B7
:1012E00030E00FC0DB010D900020E9F71197A61B3D
:1012F000B70BE881F9810280F381E02DAD010995FA
:101300009C01C901DF91CF9108954F925F927F9226
:101310008F929F92AF92BF92CF92DF92EF92FF9205
:101320000F931F93DF93CF93CDB7DEB7A1970FB67F
:10133000F894DEBF0FBECDBF2C01742ECB0122303E
:1013400008F42AE019A231E2C32ED12CCC0EDD1E06
:10135000822E9924AA24BB24672D752FA501940100
:101360000E94480D79018A01C801B701A5019401C5
:101370000E94020D472D461B0894C108D1084A302F
:1013800014F4405D01C0495CF6014083E114F104AE
:101390000105110521F07E2C5F2DC801DDCFC201B2
:1013A000B6010E946909A1960FB6F894DEBF0FBE80
:1013B000CDBFCF91DF911F910F91FF90EF90DF9004
:1013C000CF90BF90AF909F908F907F905F904F9005
:1013D0000895CF92DF92EF92FF920F931F93CF93D6
:1013E000DF93EC016A017B012115310541F4E881AD
:1013F000F9810190F081E02D642F09951FC02A30FA
:101400003105D1F477FF17C0E881F9810190F081AF
:10141000E02D6DE209958C0144275527BA014C193E
:101420005D096E097F09CE012AE00E9485099801B5
:10143000280F391F04C02AE00E9485099C01C901B8
:10144000DF91CF911F910F91FF90EF90DF90CF90A0
:101450000895EF92FF920F931F937B019A0100274B
:10146000F7FC0095102FB801A7010E94E9091F9110
:101470000F91FF90EF9008950E9469090895EF92EF
:10148000FF920F931F937C010E9469098C01C70191
:101490000E944909080F191FC8011F910F91FF9061
:1014A000EF900895EF92FF920F931F937B018C01B1
:1014B000611571058105910529F420E030E040E0D7
:1014C00050E00BC00E94DF00A80197010E946A0D46
:1014D000AC01CB01DA019C01AD01B901CA011F9138
:1014E0000F91FF90EF900895EF92FF920F931F934B
:1014F0007B018C01621773078407950764F4261B30
:10150000370B480B590BCA01B9010E94520AE60E6B
:10151000F71E081F191FB701C8011F910F91FF90F7
:10152000EF9008955058BB27AA270ED0B3C1A4D17D
:1015300030F0A9D120F031F49F3F11F41EF499C18D
:101540000EF4E095E7FB64C1E92FB5D180F3BA173B
:10155000620773078407950718F071F49EF5E4C1DC
:101560000EF4E0950B2EBA2FA02D0B01B9019001BE
:101570000C01CA01A0011124FF27591B99F0593F02
:1015800050F4503E68F11A16F040A22F232F342F4A
:101590004427585FF3CF469537952795A795F04098
:1015A0005395C9F77EF41F16BA0B620B730B840BAD
:1015B000BAF09150A1F0FF0FBB1F661F771F881F65
:1015C000C2F70EC0BA0F621F731F841F48F48795BD
:1015D00077956795B795F7959E3F08F0B3CF9395AC
:1015E000880F08F09927EE0F979587950895ECD00E
:1015F00008F481E008950CD04DC145D140F03CD1B4
:1016000030F021F45F3F19F003C151118EC131C197
:1016100052D198F39923C9F35523B1F3951B550B78
:10162000BB27AA2762177307840738F09F5F5F4FB5
:10163000220F331F441FAA1FA9F333D00E2E3AF0F6
:10164000E0E830D091505040E695001CCAF729D010
:10165000FE2F27D0660F771F881FBB1F261737075F
:101660004807AB07B0E809F0BB0B802DBF01FF278F
:1016700093585F4F2AF09E3F510568F0C9C055C18D
:101680005F3FECF3983EDCF3869577956795B795C9
:10169000F7959F5FC9F7880F911D9695879597F9E4
:1016A0000895E1E0660F771F881FBB1F621773075D
:1016B0008407BA0720F0621B730B840BBA0BEE1F72
:1016C00088F7E095089504D06894B1112EC108956B
:1016D000FAD088F09F5790F0B92F9927B751A0F012
:1016E000D1F0660F771F881F991F1AF0BA95C9F7B6
:1016F00012C0B13081F018D1B1E0089515C1672F43
:10170000782F8827B85F39F0B93FCCF38695779565
:101710006795B395D9F73EF490958095709561954E
:101720007F4F8F4F9F4F0895E89409C097FB3EF479
:1017300090958095709561957F4F8F4F9F4F99231E
:10174000A9F0F92F96E9BB279395F695879577959C
:101750006795B795F111F8CFFAF4BB0F11F460FF5C
:101760001BC06F5F7F4F8F4F9F4F16C0882311F0B4
:1017700096E911C0772321F09EE8872F762F05C0C8
:10178000662371F096E8862F70E060E02AF09A9563
:10179000660F771F881FDAF7880F9695879597F958
:1017A0000895ABD080F09F3740F491110EF0BDC08A
:1017B00060E070E080E89FEB089526F41B16611D41
:1017C000711D811D2BC045C0990F0008550FAA0B34
:1017D000E0E8FEEF16161706E807F907C0F0121644
:1017E0001306E407F50798F0621B730B840B950B47
:1017F00039F40A2661F0232B242B252B21F408959C
:101800000A2609F4A140A6958FEF811D811D089538
:1018100097F99F6780E870E060E00895882371F48D
:10182000772321F09850872B762F07C0662311F479
:1018300099270DC09051862B70E060E02AF09A95B0
:10184000660F771F881FDAF7880F9695879597F9A7
:1018500008959F3F49F0915028F4869577956795B4
:10186000B7959F5F80389F4F880F9695879597F91A
:1018700008959FEF80EC089500240A941616170629
:1018800018060906089500240A9412161306140671
:1018900005060895092E0394000C11F4882352F0D4
:1018A000BB0F40F4BF2B11F460FF04C06F5F7F4F8C
:1018B0008F4F9F4F089557FD9058440F551F59F073
:1018C0005F3F71F04795880F97FB991F61F09F3F2D
:1018D00079F087950895121613061406551FF2CF56
:1018E0004695F1DF08C0161617061806991FF1CFA6
:1018F00086957105610508940895E5DFA0F0BEE7BF
:10190000B91788F4BB279F3860F41616B11D672FEE
:10191000782F8827985FF7CF869577956795B11DC3
:1019200093959639C8F30895E894BB2766277727DF
:10193000CB0197F9089548DF08F48FEF08950BD095
:10194000A9CF9ADF28F09FDF18F0952309F060CF28
:1019500090CF1124EACFAFDFA0F3959FD1F3950F7D
:1019600050E0551F629FF001729FBB27F00DB11D23
:10197000639FAA27F00DB11DAA1F649F6627B00DB3
:10198000A11D661F829F2227B00DA11D621F739F9C
:10199000B00DA11D621F839FA00D611D221F749FAA
:1019A0003327A00D611D231F849F600D211D822FF1
:1019B000762F6A2F11249F5750408AF0E1F0882338
:1019C0004AF0EE0FFF1FBB1F661F771F881F915045
:1019D0005040A9F79E3F510570F01ACFA6CF5F3F48
:1019E000ECF3983EDCF3869577956795B795F79578
:1019F000E7959F5FC1F7FE2B880F911D9695879500
:101A000097F90895629FD001739FF001829FE00DC6
:101A1000F11D649FE00DF11D929FF00D839FF00D6D
:101A2000749FF00D659FF00D9927729FB00DE11D19
:101A3000F91F639FB00DE11DF91FBD01CF011124F6
:101A40000895AA1BBB1B51E107C0AA1FBB1FA61705
:101A5000B70710F0A61BB70B881F991F5A95A9F757
:101A600080959095BC01CD01089597FB092E07261E
:101A70000AD077FD04D0E5DF06D000201AF4709577
:101A800061957F4F0895F6F7909581959F4F089542
:101A9000A1E21A2EAA1BBB1BFD010DC0AA1FBB1F72
:101AA000EE1FFF1FA217B307E407F50720F0A21BE4
:101AB000B30BE40BF50B661F771F881F991F1A9451
:101AC00069F760957095809590959B01AC01BD017B
:101AD000CF01089597FB092E05260ED057FD04D09F
:101AE000D7DF0AD0001C38F45095409530952195E9
:101AF0003F4F4F4F5F4F0895F6F790958095709543
:101B000061957F4F8F4F9F4F0895EE0FFF1F0590F8
:101B1000F491E02D09942F923F924F925F926F9231
:101B20007F928F929F92AF92BF92CF92DF92EF926D
:101B3000FF920F931F93CF93DF93CDB7DEB7CA1BEE
:101B4000DB0B0FB6F894DEBF0FBECDBF09942A8819
:101B5000398848885F846E847D848C849B84AA84C1
:101B6000B984C884DF80EE80FD800C811B81AA814E
:101B7000B981CE0FD11D0FB6F894DEBF0FBECDBF19
:081B8000ED010895F894FFCF78
:101B88003D3D3D2073657474696E67207570203D16
:101B98003D3D007573696E672070696E7320002C77
:101BA8002000203A3A3A2069646C696E67203A3A14
:101BB8003A0001000000E803E8030100010000000A
:0E1BC8000089081F091F08500830087908001E
:040000050080031262
:00000001FF
